{
  "contractName": "Compute",
  "abi": [
    {
      "constant": true,
      "inputs": [],
      "name": "totalJobs",
      "outputs": [
        {
          "name": "jobsLength",
          "type": "uint256"
        }
      ],
      "payable": false,
      "stateMutability": "view",
      "type": "function"
    },
    {
      "constant": true,
      "inputs": [],
      "name": "supervisor",
      "outputs": [
        {
          "name": "",
          "type": "address"
        }
      ],
      "payable": false,
      "stateMutability": "view",
      "type": "function"
    },
    {
      "constant": false,
      "inputs": [
        {
          "name": "ip",
          "type": "string"
        },
        {
          "name": "port",
          "type": "uint256"
        }
      ],
      "name": "createBid",
      "outputs": [],
      "payable": false,
      "stateMutability": "nonpayable",
      "type": "function"
    },
    {
      "constant": false,
      "inputs": [
        {
          "name": "_numInstances",
          "type": "uint256"
        },
        {
          "name": "_manifestFile",
          "type": "string"
        }
      ],
      "name": "createJob",
      "outputs": [
        {
          "name": "",
          "type": "uint256"
        }
      ],
      "payable": false,
      "stateMutability": "nonpayable",
      "type": "function"
    },
    {
      "constant": true,
      "inputs": [],
      "name": "totalJobs2",
      "outputs": [
        {
          "name": "jobsLength",
          "type": "uint256"
        }
      ],
      "payable": false,
      "stateMutability": "view",
      "type": "function"
    }
  ],
  "bytecode": "0x6060604052341561000f57600080fd5b61132a8061001e6000396000f30060606040526004361061006d576000357c0100000000000000000000000000000000000000000000000000000000900463ffffffff1680631ace87b31461007257806356e4b68b1461009b5780638be49527146100f0578063ad0b916814610156578063d6ced4f1146101d0575b600080fd5b341561007d57600080fd5b6100856101f9565b6040518082815260200191505060405180910390f35b34156100a657600080fd5b6100ae610206565b604051808273ffffffffffffffffffffffffffffffffffffffff1673ffffffffffffffffffffffffffffffffffffffff16815260200191505060405180910390f35b34156100fb57600080fd5b610154600480803590602001908201803590602001908080601f0160208091040260200160405190810160405280939291908181526020018383808284378201915050505050509190803590602001909190505061022b565b005b341561016157600080fd5b6101ba600480803590602001909190803590602001908201803590602001908080601f01602080910402602001604051908101604052809392919081815260200183838082843782019150505050505091905050610985565b6040518082815260200191505060405180910390f35b34156101db57600080fd5b6101e3610a81565b6040518082815260200191505060405180910390f35b6000600180549050905090565b6000809054906101000a900473ffffffffffffffffffffffffffffffffffffffff1681565b610233610a8e565b61023b610ad3565b600080610246610ad3565b6000610250610b18565b6000806001600081548110151561026357fe5b9060005260206000209060040201608060405190810160405290816000820154815260200160018201548152602001600282018054600181600116156101000203166002900480601f01602080910402602001604051908101604052809291908181526020018280546001816001161561010002031660029004801561032a5780601f106102ff5761010080835404028352916020019161032a565b820191906000526020600020905b81548152906001019060200180831161030d57829003601f168201915b505050505081526020016003820160009054906101000a900473ffffffffffffffffffffffffffffffffffffffff1673ffffffffffffffffffffffffffffffffffffffff1673ffffffffffffffffffffffffffffffffffffffff168152505098506080604051908101604052803373ffffffffffffffffffffffffffffffffffffffff1681526020018c81526020018b8152602001600360008c600001518152602001908152602001600020805490508152509750600360008a60000151815260200190815260200160002080548060010182816104089190610b2c565b916000526020600020906004020160008a909190915060008201518160000160006101000a81548173ffffffffffffffffffffffffffffffffffffffff021916908373ffffffffffffffffffffffffffffffffffffffff1602179055506020820151816001019080519060200190610481929190610b5e565b5060408201518160020155606082015181600301555050508860200151600360008b60000151815260200190815260200160002080549050141561097857600160008154811015156104cf57fe5b906000526020600020906004020160008082016000905560018201600090556002820160006104fe9190610bde565b6003820160006101000a81549073ffffffffffffffffffffffffffffffffffffffff021916905550506002805480600101828161053b9190610c26565b916000526020600020906004020160008b909190915060008201518160000155602082015181600101556040820151816002019080519060200190610581929190610b5e565b5060608201518160030160006101000a81548173ffffffffffffffffffffffffffffffffffffffff021916908373ffffffffffffffffffffffffffffffffffffffff160217905550505050886000015189606001518a602001518b604001516105e8610c58565b808581526020018473ffffffffffffffffffffffffffffffffffffffff1673ffffffffffffffffffffffffffffffffffffffff16815260200183815260200180602001828103825283818151815260200191508051906020019080838360005b83811015610663578082015181840152602081019050610648565b50505050905090810190601f1680156106905780820380516001836020036101000a031916815260200191505b5095505050505050604051809103906000f08015156106ae57600080fd5b9650600095505b600360008a6000015181526020019081526020016000208054905086101561097757600360008a600001518152602001908152602001600020868154811015156106fb57fe5b9060005260206000209060040201608060405190810160405290816000820160009054906101000a900473ffffffffffffffffffffffffffffffffffffffff1673ffffffffffffffffffffffffffffffffffffffff1673ffffffffffffffffffffffffffffffffffffffff168152602001600182018054600181600116156101000203166002900480601f0160208091040260200160405190810160405280929190818152602001828054600181600116156101000203166002900480156108045780601f106107d957610100808354040283529160200191610804565b820191906000526020600020905b8154815290600101906020018083116107e757829003601f168201915b50505050508152602001600282015481526020016003820154815250509450846000015193508460200151925084604001519150846060015190508673ffffffffffffffffffffffffffffffffffffffff1663e97319e4858585856040518563ffffffff167c0100000000000000000000000000000000000000000000000000000000028152600401808573ffffffffffffffffffffffffffffffffffffffff1673ffffffffffffffffffffffffffffffffffffffff16815260200180602001848152602001838152602001828103825285818151815260200191508051906020019080838360005b838110156109085780820151818401526020810190506108ed565b50505050905090810190601f1680156109355780820380516001836020036101000a031916815260200191505b5095505050505050600060405180830381600087803b151561095657600080fd5b6102c65a03f1151561096757600080fd5b50505085806001019650506106b5565b5b5050505050505050505050565b600061098f610a8e565b60806040519081016040528060018054905081526020018581526020018481526020013373ffffffffffffffffffffffffffffffffffffffff168152509050600180548060010182816109e29190610c26565b9160005260206000209060040201600083909190915060008201518160000155602082015181600101556040820151816002019080519060200190610a28929190610b5e565b5060608201518160030160006101000a81548173ffffffffffffffffffffffffffffffffffffffff021916908373ffffffffffffffffffffffffffffffffffffffff160217905550505050806000015191505092915050565b6000600180549050905090565b6080604051908101604052806000815260200160008152602001610ab0610c68565b8152602001600073ffffffffffffffffffffffffffffffffffffffff1681525090565b608060405190810160405280600073ffffffffffffffffffffffffffffffffffffffff168152602001610b04610c68565b815260200160008152602001600081525090565b602060405190810160405280600081525090565b815481835581811511610b5957600402816004028360005260206000209182019101610b589190610c7c565b5b505050565b828054600181600116156101000203166002900490600052602060002090601f016020900481019282601f10610b9f57805160ff1916838001178555610bcd565b82800160010185558215610bcd579182015b82811115610bcc578251825591602001919060010190610bb1565b5b509050610bda9190610ce2565b5090565b50805460018160011615610100020316600290046000825580601f10610c045750610c23565b601f016020900490600052602060002090810190610c229190610ce2565b5b50565b815481835581811511610c5357600402816004028360005260206000209182019101610c529190610d07565b5b505050565b60405161059180610d6e83390190565b602060405190810160405280600081525090565b610cdf91905b80821115610cdb57600080820160006101000a81549073ffffffffffffffffffffffffffffffffffffffff0219169055600182016000610cc29190610bde565b6002820160009055600382016000905550600401610c82565b5090565b90565b610d0491905b80821115610d00576000816000905550600101610ce8565b5090565b90565b610d6a91905b80821115610d66576000808201600090556001820160009055600282016000610d369190610bde565b6003820160006101000a81549073ffffffffffffffffffffffffffffffffffffffff021916905550600401610d0d565b5090565b9056006060604052341561000f57600080fd5b604051610591380380610591833981016040528080519060200190919080519060200190919080519060200190919080518201919050508360008190555082600260006101000a81548173ffffffffffffffffffffffffffffffffffffffff021916908373ffffffffffffffffffffffffffffffffffffffff16021790555033600360006101000a81548173ffffffffffffffffffffffffffffffffffffffff021916908373ffffffffffffffffffffffffffffffffffffffff1602179055508160018190555080600490805190602001906100ec9291906100f6565b505050505061019b565b828054600181600116156101000203166002900490600052602060002090601f016020900481019282601f1061013757805160ff1916838001178555610165565b82800160010185558215610165579182015b82811115610164578251825591602001919060010190610149565b5b5090506101729190610176565b5090565b61019891905b8082111561019457600081600090555060010161017c565b5090565b90565b6103e7806101aa6000396000f300606060405260043610610041576000357c0100000000000000000000000000000000000000000000000000000000900463ffffffff168063e97319e414610046575b600080fd5b341561005157600080fd5b6100d2600480803573ffffffffffffffffffffffffffffffffffffffff1690602001909190803590602001908201803590602001908080601f016020809104026020016040519081016040528093929190818152602001838380828437820191505050505050919080359060200190919080359060200190919050506100d4565b005b6100dc6101dd565b84816000019073ffffffffffffffffffffffffffffffffffffffff16908173ffffffffffffffffffffffffffffffffffffffff16815250508381602001819052508281604001818152505081816060018181525050600680548060010182816101459190610222565b9160005260206000209060040201600083909190915060008201518160000160006101000a81548173ffffffffffffffffffffffffffffffffffffffff021916908373ffffffffffffffffffffffffffffffffffffffff16021790555060208201518160010190805190602001906101be929190610254565b5060408201518160020155606082015181600301555050505050505050565b608060405190810160405280600073ffffffffffffffffffffffffffffffffffffffff16815260200161020e6102d4565b815260200160008152602001600081525090565b81548183558181151161024f5760040281600402836000526020600020918201910161024e91906102e8565b5b505050565b828054600181600116156101000203166002900490600052602060002090601f016020900481019282601f1061029557805160ff19168380011785556102c3565b828001600101855582156102c3579182015b828111156102c25782518255916020019190600101906102a7565b5b5090506102d0919061034e565b5090565b602060405190810160405280600081525090565b61034b91905b8082111561034757600080820160006101000a81549073ffffffffffffffffffffffffffffffffffffffff021916905560018201600061032e9190610373565b60028201600090556003820160009055506004016102ee565b5090565b90565b61037091905b8082111561036c576000816000905550600101610354565b5090565b90565b50805460018160011615610100020316600290046000825580601f1061039957506103b8565b601f0160209004906000526020600020908101906103b7919061034e565b5b505600a165627a7a723058204dea25990f57636aaac6a67d2923e5eb5e17afdc8bf28d2314314ec31f3bbd960029a165627a7a723058203f3721f1d7cb76ebbd0ef7e8a6566ea8492631429072c9586abb6fc059d21c460029",
  "source": "pragma solidity ^0.4.17;\n\nimport \"./JobContract.sol\";\n\ncontract Compute {\n\n  address public supervisor; // this is also the owner\n\n  struct Bid {\n    address bidder; //instance that is bidding on job\n    string ip;\n    uint port;\n    uint index;\n    //Resource recourse; //description of the resources available\n  }\n\n  struct Job {\n    uint index;\n    uint numInstances;\n    string manifestFile;\n    address requester; //who is asking for a job\n    // Bid[] bids;\n  }\n\n  Job[] jobs;\n  Job[] runningJobs;\n  mapping (uint => Bid[]) globalBids;\n\n  //i think this atomic\n  function createJob(uint _numInstances, string _manifestFile) public returns (uint) {\n    Job memory job = Job(jobs.length,  _numInstances, _manifestFile, msg.sender);\n    jobs.push(job);\n    return job.index;\n  }\n\n  function totalJobs() public view returns(uint jobsLength) {\n    return jobs.length;\n  }\n\n  function totalJobs2() public view returns(uint jobsLength) {\n    return jobs.length;\n  }\n\n  // function retrieveJob(uint _index) private returns(Job returnedJob) {\n    // return jobs[_index];\n  // }\n\n  function createBid(string ip, uint port) public {\n    // For some of the compiler warnings - https://github.com/ethereum/solidity/pull/3014\n    Job memory first = jobs[0];\n\n    Bid memory bid = Bid(msg.sender, ip, port, globalBids[first.index].length);\n    globalBids[first.index].push(bid);\n\n    if(globalBids[first.index].length == first.numInstances) {\n      delete jobs[0];\n      runningJobs.push(first);\n      JobContract jc = new JobContract(first.index, first.requester, first.numInstances, first.manifestFile);\n\n      //does this work properly?\n      for(uint i=0; i < globalBids[first.index].length; i++) {\n        Bid memory b = globalBids[first.index][i];\n        address _bidder = b.bidder;\n        string memory _ip = b.ip;\n        uint _port = b.port;\n        uint _index = b.index;\n        jc.addBid(_bidder, _ip, _port, _index);\n      }\n    }\n  }\n\n  function completeJob(uint index) private {\n    delete runningJobs[index];\n  }\n\n\n}\n",
  "sourcePath": "/Users/samrahman/Documents/computecoin/poc/contracts/Compute.sol",
  "compiler": {
    "name": "solc",
    "version": "0.4.18+commit.9cf6e910.Emscripten.clang"
  },
  "schemaVersion": "1.0.1",
  "updatedAt": "2018-01-17T23:41:55.222Z"
}