{
  "contractName": "JobContract",
  "abi": [
    {
      "constant": false,
      "inputs": [
        {
          "name": "_bidder",
          "type": "address"
        },
        {
          "name": "_ip",
          "type": "string"
        },
        {
          "name": "_port",
          "type": "uint256"
        },
        {
          "name": "_index",
          "type": "uint256"
        }
      ],
      "name": "addBid",
      "outputs": [],
      "payable": false,
      "stateMutability": "nonpayable",
      "type": "function"
    },
    {
      "inputs": [
        {
          "name": "_index",
          "type": "uint256"
        },
        {
          "name": "_requester",
          "type": "address"
        },
        {
          "name": "_numInstances",
          "type": "uint256"
        },
        {
          "name": "_manifestFile",
          "type": "string"
        }
      ],
      "payable": false,
      "stateMutability": "nonpayable",
      "type": "constructor"
    }
  ],
  "bytecode": "0x6060604052341561000f57600080fd5b604051610591380380610591833981016040528080519060200190919080519060200190919080519060200190919080518201919050508360008190555082600260006101000a81548173ffffffffffffffffffffffffffffffffffffffff021916908373ffffffffffffffffffffffffffffffffffffffff16021790555033600360006101000a81548173ffffffffffffffffffffffffffffffffffffffff021916908373ffffffffffffffffffffffffffffffffffffffff1602179055508160018190555080600490805190602001906100ec9291906100f6565b505050505061019b565b828054600181600116156101000203166002900490600052602060002090601f016020900481019282601f1061013757805160ff1916838001178555610165565b82800160010185558215610165579182015b82811115610164578251825591602001919060010190610149565b5b5090506101729190610176565b5090565b61019891905b8082111561019457600081600090555060010161017c565b5090565b90565b6103e7806101aa6000396000f300606060405260043610610041576000357c0100000000000000000000000000000000000000000000000000000000900463ffffffff168063e97319e414610046575b600080fd5b341561005157600080fd5b6100d2600480803573ffffffffffffffffffffffffffffffffffffffff1690602001909190803590602001908201803590602001908080601f016020809104026020016040519081016040528093929190818152602001838380828437820191505050505050919080359060200190919080359060200190919050506100d4565b005b6100dc6101dd565b84816000019073ffffffffffffffffffffffffffffffffffffffff16908173ffffffffffffffffffffffffffffffffffffffff16815250508381602001819052508281604001818152505081816060018181525050600680548060010182816101459190610222565b9160005260206000209060040201600083909190915060008201518160000160006101000a81548173ffffffffffffffffffffffffffffffffffffffff021916908373ffffffffffffffffffffffffffffffffffffffff16021790555060208201518160010190805190602001906101be929190610254565b5060408201518160020155606082015181600301555050505050505050565b608060405190810160405280600073ffffffffffffffffffffffffffffffffffffffff16815260200161020e6102d4565b815260200160008152602001600081525090565b81548183558181151161024f5760040281600402836000526020600020918201910161024e91906102e8565b5b505050565b828054600181600116156101000203166002900490600052602060002090601f016020900481019282601f1061029557805160ff19168380011785556102c3565b828001600101855582156102c3579182015b828111156102c25782518255916020019190600101906102a7565b5b5090506102d0919061034e565b5090565b602060405190810160405280600081525090565b61034b91905b8082111561034757600080820160006101000a81549073ffffffffffffffffffffffffffffffffffffffff021916905560018201600061032e9190610373565b60028201600090556003820160009055506004016102ee565b5090565b90565b61037091905b8082111561036c576000816000905550600101610354565b5090565b90565b50805460018160011615610100020316600290046000825580601f1061039957506103b8565b601f0160209004906000526020600020908101906103b7919061034e565b5b505600a165627a7a723058204dea25990f57636aaac6a67d2923e5eb5e17afdc8bf28d2314314ec31f3bbd960029",
  "source": "pragma solidity ^0.4.17;\n\ncontract JobContract {\n\n  uint index;\n  uint numInstances;\n  address requester;\n  address supervisor;\n  string manifestFile;\n\n\n  enum State { Ready, Running, Completed }\n  State state;\n\n  function JobContract(uint _index, address _requester, uint _numInstances, string _manifestFile) public {\n    index = _index;\n    requester = _requester;\n    supervisor = msg.sender;\n    numInstances = _numInstances;\n    manifestFile = _manifestFile;\n  }\n\n  struct JobBid {\n    address bidder; //instance that is bidding on job\n    string ip;\n    uint port;\n    uint index;\n  }\n\n  JobBid[] bids;\n\n  function addBid(address _bidder, string _ip, uint _port, uint _index) public {\n    JobBid memory bid;\n    bid.bidder = _bidder;\n    bid.ip = _ip;\n    bid.port = _port;\n    bid.index = _index;\n    bids.push(bid);\n  }\n\n  // function retrieveManifestFile(string _manifestFile) return(string) {\n  //   // Get the manifest file from IPFS\n  // }\n\n  // function parseManifestFile(string _manifestFile) {\n  //   // Parse out resources\n  // }\n\n  // function runJob() public {\n  //   retrieveManifestFile(manifestFile);\n  //    parseManifestFile(manifestFile);\n  // }\n}\n",
  "sourcePath": "/Users/samrahman/Documents/computecoin/poc/contracts/JobContract.sol",
  "compiler": {
    "name": "solc",
    "version": "0.4.18+commit.9cf6e910.Emscripten.clang"
  },
  "schemaVersion": "1.0.1",
  "updatedAt": "2018-01-17T23:21:26.406Z"
}